:1000000078C2000097C2000095C200000FC4000033
:1000100024C400008FC200008DC200008BC200000B
:1000200089C2000087C2000085C2000083C20000B0
:1000300081C200007FC200007DC200007BC20000C0
:1000400079C2000077C2000075C2000073C20000D0
:1000500071C200006FC200006DC200000C941C143D
:1000600069C2000067C2000065C2000063C20000F0
:1000700061C200005FC200005DC200005BC2000000
:1000800059C2000057C2000055C2000053C2000010
:1000900051C200004FC200004DC200004BC2000020
:1000A00049C2000047C2000045C2000043C2000030
:1000B00041C200003FC200003DC200003BC2000040
:1000C00039C2000037C2000035C2000033C2000050
:1000D00031C200002FC200002DC200002BC2000060
:1000E00029C200008B07C807030840087D08BA082A
:1000F000F70834097B09510C350CED0B190C950BE5
:100100006F0DC10BED0B5E0B6F0D6F0D6F0D790B4E
:100110006F0D950B770D640C6F0D6F0D6F0D6F0DDF
:100120006F0D6F0D6F0D4D0B6F0D6F0D6F0D5E0B26
:100130006F0D790B6F0DA20C6F0D6F0D6F0D6F0DA5
:100140006F0D6F0D6F0D6F0D6F0D6F0D6F0D6F0DCF
:100150006F0D6F0D6F0D830C6F0D6F0D6F0D6F0DAC
:100160006F0D6F0D6F0D640C6F0D6F0D6F0D4D0BDF
:100170006F0D6F0D6F0D020D6F0D6F0D6F0D6F0D0C
:100180006F0D6F0D6F0D6F0D6F0D6F0D6F0D6F0D8F
:100190006F0D6F0D6F0D6F0D6F0D6F0D6F0D6F0D7F
:1001A0006F0D6F0D6F0D6F0D6F0D6F0D6F0D6F0D6F
:1001B0006F0D6F0D6F0DD20C6F0D6F0D6F0D6F0DFD
:1001C0006F0D6F0D6F0D6F0D6F0D6F0D6F0D6F0D4F
:1001D0006F0D6F0D6F0DA20C6F0D6F0D6F0D6F0D0D
:1001E0006F0D6F0D6F0D830C6F0D6F0D6F0D6F0D1C
:1001F0006F0D6F0D6F0D500D510C6F0D510C6F0D7C
:100200006F0D6F0D6F0D6F0D6F0D6F0D6F0D6F0D0E
:100210006F0D6F0D6F0D6F0D6F0D6F0D6F0D6F0DFE
:100220006F0D6F0D6F0D6F0D6F0D6F0D6F0D6F0DEE
:100230006F0D6F0D6F0D6F0D6F0D6F0D6F0D6F0DDE
:100240006F0D6F0D6F0D6F0D6F0D6F0D6F0D6F0DCE
:100250006F0D6F0D6F0D6F0D6F0D6F0D6F0D6F0DBE
:100260006F0D6F0D6F0D6F0D6F0D6F0D6F0D6F0DAE
:100270006F0D6F0D6F0D310D510C6F0D6F0D6F0DFB
:100280006F0D6F0D6F0D6F0D6F0D6F0D6F0D6F0D8E
:100290006F0D6F0D6F0D6F0D6F0D6F0D6F0D6F0D7E
:1002A0006F0D6F0D6F0D6F0D6F0D6F0D6F0D6F0D6E
:1002B0006F0D6F0D6F0D020D6F0D6F0D6F0D6F0DCB
:1002C0006F0D6F0D6F0D6F0D6F0D6F0D6F0D6F0D4E
:1002D0006F0D6F0D6F0D770D1310FB0FBB0FE30F3D
:1002E0006B0F1311930FBB0F3C0F1311131113114D
:1002F000530F13116B0F1B11261013111311131130
:1003000013111311131113112F0F131113111311B3
:100310003C0F1311530F13115C1013111311131110
:1003200013111311131113111311131113111311AD
:100330001311131113111311411013111311131170
:10034000131113111311131126101311131113117B
:100350002F0F131113111311B210131113111311C5
:10036000131113111311131113111311131113116D
:10037000131113111311131113111311131113115D
:10038000131113111311131113111311131113114D
:1003900013111311131113118710131113111311CA
:1003A000131113111311131113111311131113112D
:1003B00013111311131113115C10131113111311D5
:1003C00013111311131113114110131113111311E0
:1003D0001311131113111311F8101310131113101B
:1003E00013111311131113111311131113111311ED
:1003F00013111311131113111311131113111311DD
:1004000013111311131113111311131113111311CC
:1004100013111311131113111311131113111311BC
:1004200013111311131113111311131113111311AC
:10043000131113111311131113111311131113119C
:10044000131113111311131113111311131113118C
:100450001311131113111311DD10131013111311B4
:10046000131113111311131113111311131113116C
:10047000131113111311131113111311131113115C
:10048000131113111311131113111311131113114C
:100490001311131113111311B2101311131113119E
:1004A000131113111311131113111311131113112C
:1004B00013111311131113111B115B1118131813BE
:1004C00018136911A91118131813181318131813F6
:1004D0001813D911FB110C121C1234121813181313
:1004E000181318131813511275128B12A012BD1283
:1004F000DA1211241FBECFEFD1E2DEBFCDBF00E084
:100500000CBF12E0A0E0B2E0E0E9F1E300E00BBFD5
:1005100002C007900D92A838B107D9F723E0A8E8E8
:10052000B2E001C01D92A735B207E1F70E949B140B
:100530000C94C61865CD80E480937C0084E8809399
:100540007A008CE291E09093DB028093DA020895C6
:10055000806480937C00EAE7F0E08081806480839F
:10056000808184FFFDCFEAE7F0E0808180618083B5
:100570008091780090917900089580E480937C00C8
:10058000EBE7F0E0808188608083EAE7F0E080813B
:1005900080648083808184FFFDCFEAE7F0E0808182
:1005A00080618083EBE7F0E08081877F80838091AA
:1005B00078009091790008950F931F93CF930CEEDC
:1005C00012E0C0E08C2FC4DFF801929382938F0178
:1005D000CF5FC830B9F7CF911F910F9108958091E7
:1005E0008802811116C0E8DFECEDF2E0A9E8B2E084
:1005F0006CEE72E080E0880F419151912D913D9118
:100600002417350708F48160E617F707A1F78093F0
:10061000D9020895CF93DF93E9EAF2E0C9EBD2E083
:10062000A9E8B2E049EB52E0219131918991999189
:10063000820F931F969587958D939D93E417F507E9
:1006400099F740E169E872E088E18CD0DF91CF91C1
:100650000895CF93DF93ECEDF2E0A9EBB2E02CEE3E
:1006600032E0ED018191919189939993E217F3071B
:10067000C9F7E9EAF2E0C9E8D2E049EB52E021919A
:1006800031918D919D91820F931F969587958993B6
:100690009993E417F50799F7DF91CF910895CF93D8
:1006A000DF93ACEDB2E0E9EAF2E02CEE32E0EF01EC
:1006B0008D919D9189939993A217B307C9F7C9EBBF
:1006C000D2E0A9E8B2E049EB52E021913191899161
:1006D0009991820F931F969587958D939D93E4171B
:1006E000F50799F7DF91CF91089540E169E872E04D
:1006F00088E160C00895249A1092EE021092ED02F3
:100700001092EC0208952C9A08952C9808958091E7
:10071000EC02882371F08091ED029091EE02019736
:100720009093EE028093ED02892B19F41092EC0263
:10073000ECCF08959093EE028093ED0281E08093D8
:10074000EC02E1CF0895F999FECF90E092BD81BD12
:1007500060BD8FB78F778FBFFA9AF99A8FB780688D
:100760008FBF08950F931F93CF93DF93611571058A
:1007700071F0442361F0C82F8B01D42FD80FF801FA
:1007800061918F018C2FDFDFCF5FCD13F8CFDF9129
:10079000CF911F910F910895F999FECF9FB79F7741
:1007A0009FBF90E092BD81BDF89A8FB780688FBFE0
:1007B00080B508950F931F93CF93DF93C82FD42F45
:1007C0006115710539F4842F90E00E94A517BC01D2
:1007D000892B61F0DD2351F08B01DC0F8C2FDCDFE6
:1007E000F80181938F01CF5FCD13F8CFDF91CF91C7
:1007F0001F910F91089580EA8093690010926A001A
:100800008CE08DBB8CBB8AB1837F8AB98EB18C6042
:100810008EB91092F0021092EF021092F102109233
:10082000F3021092F2021092F40208951F920F92B6
:100830000FB60F9211248F939F938091EF029091A6
:10084000F00201969093F0028093EF029F918F91B6
:100850000F900FBE0F901F9018951F920F920FB61A
:100860000F9211248F939F938091F2029091F30243
:1008700001969093F3028093F2029F918F910F90D3
:100880000FBE0F901F901895259A80E880938000E6
:1008900082E180938100109285001092840083E1B0
:1008A0008093870088E88093860085E080938900A4
:1008B0008CED8093880010928B0010928A00109229
:1008C0008D0010928C00089526EFAC012403C00126
:1008D000259F900D11242091060230910702820F6E
:1008E000931F9093890080938800089520910602B9
:1008F00030910702281B390B309389002093880020
:1009000008956091060288E21EDF6091070289E285
:100910001ACF089589E240DF109206028093070201
:1009200088E23ADF2091060230910702A901480FC0
:10093000511DCA0150930702409306028C3B52E0BE
:10094000950738F48CED95E09093070280930602AA
:1009500008958D3F984030F08CED95E0909307021C
:10096000809306020895A1E0B1E08C91807F8C9382
:10097000E2E0F1E080818F6080838C918F708C93B6
:100980008081806F80838FE08093FA028093FC02E5
:10099000809300038093FD0280EF80930103809396
:1009A000F8028093FF028093F90208954091FD02BE
:1009B000409300039091FC029093FD025091F90244
:1009C0005093FF022091F8022093F90280910001D8
:1009D000382F307F3093F8028F708093FC022313FE
:1009E00004C0521302C050930103981304C049136A
:1009F00002C04093FA0208952091FA0230E0A90162
:100A000002C0559547958A95E2F7CA0151E08527BE
:100A1000817008958091010382958F70089580916F
:100A2000F6020895479A80E18A95F1F7479887E59D
:100A300092E00197F1F700C00000089598B18F701F
:100A4000907F892B88B90895CF93C82F82958F7096
:100A5000F5DFE8DF8C2FF2DFE5DFCF910895CF934C
:100A6000C82F459882958F70E9DFDCDF8C2FE6DF99
:100A7000D9DF459ACF9108954598611102C08058F9
:100A800001C08054EFEDFEE23197F1F700C00000A5
:100A9000E6DF8FE99FE00197F1F700C000000895BD
:100AA00081E0DDDF8FE39CE90197F1F700C00000F2
:100AB000089587B18F6087B987B1806A87B93E9AF8
:100AC00088B1807F88B92FEF89EF90E02150804076
:100AD0009040E1F700C0000045988FE19EE4019747
:100AE000F1F700C0000046988FE19EE40197F1F70E
:100AF00000C0000083E0B3DF8FE39CE90197F1F7CA
:100B000000C000008FDF8FE39CE90197F1F700C080
:100B1000000088DF8FE39CE90197F1F700C0000037
:100B200081DF8FE39CE90197F1F700C0000082E0CC
:100B300096DF8FE39CE90197F1F700C0000088E29F
:100B400083DF8FE39CE90197F1F700C000008CE0A0
:100B500086DF8FE39CE90197F1F700C0000086E093
:100B60007EDF8FE39CE90197F1F700C0000098DF7A
:100B700060E080E081CF0895805D66CF0895CF93D7
:100B8000DF93EC01459A8881882329F021965CDF68
:100B900089918111FCCF4598DF91CF9108950F93F2
:100BA0001F93CF93DF93AC018A30910508F069C0A1
:100BB0009C01329522952F7023273F702327A7E4AD
:100BC000B3E00E948217969587959695879596959E
:100BD000879560E177E2869F9001879F300D969F11
:100BE000300D1124421B530B9A01369527953695EB
:100BF000279536952795A5ECB0E20E94821792952D
:100C000082958F7089279F70892768EE73E0869F91
:100C10009001879F300D969F300D1124421B530B7E
:100C20009A013695279536952795ABE7B4E10E9452
:100C300082179695879564E6689F9001699F300DAD
:100C40001124421B530B9A01ADECBCEC0E9482179D
:100C50009695879596958795969587959C01220FF1
:100C6000331F880F991F880F991F880F991F820FB4
:100C7000931F242F281B822F7FDF89E092E07FDFE4
:100C8000E2C08436910508F06DC09C013295229532
:100C90002F7023273F702327A7E4B3E00E94821719
:100CA00096958795969587959695879560E177E2D5
:100CB000869F9001879F300D969F300D1124421B17
:100CC000530B9A0136952795369527953695279596
:100CD000A5ECB0E20E948217929582958F708927C9
:100CE0009F70892768EE73E0869F9001879F300D83
:100CF000969F300D1124421B530B9A013695279570
:100D000036952795ABE7B4E10E9482178C011695C2
:100D1000079524E6209FC001219F900D11248A0190
:100D2000081B190B9801ADECBCEC0E948217EC017A
:100D3000D695C795D695C795D695C7958C2F1CDFA8
:100D4000CE01880F991FCC0FDD1FCC0FDD1FCC0FFC
:100D5000DD1FC80FD91F802F8C1B0EDF8AE092E0A9
:100D60000EDF71C0883E23E0920708F06CC09C0142
:100D7000329522952F7023273F702327A7E4B3E0F5
:100D80000E94821796958795969587959695879553
:100D900060E177E2869F9001879F300D969F300D2E
:100DA0001124421B530B9A013695279536952795AA
:100DB00036952795A5ECB0E20E9482178C0112951A
:100DC00002950F7001271F70012728EE33E0029F64
:100DD000C001039F900D129F900D11248A01081BE2
:100DE000190B98013695279536952795ABE7B4E111
:100DF0000E948217EC01D695C7958C2FBDDE24E6A4
:100E00002C9FC0012D9F900D1124081B190B9801D8
:100E1000ADECBCEC0E948217EC01D695C795D69537
:100E2000C795D695C7958C2FA7DECE01880F991F41
:100E3000CC0FDD1FCC0FDD1FCC0FDD1FC80FD91F5E
:100E4000802F8C1B99DEDF91CF911F910F91089518
:100E50008FEF81B982B9EAE0F1E080818863808315
:100E6000EBE0F1E08081877C80830895809582B9F2
:100E70000895882331F0EBE0F1E080818061808388
:100E800005C0EBE0F1E080818F7E8083662331F046
:100E9000EBE0F1E080818062808305C0EBE0F1E06F
:100EA00080818F7D8083442331F0EBE0F1E080810D
:100EB000886080830895EBE0F1E08081877F808304
:100EC000089580E090E000DD60E070E080E090E078
:100ED0000E94FD141092520310925103109250037D
:100EE00010924F0380E395E79093170380931603C6
:100EF0001092340381E0809335038CDD90E0FC0197
:100F00003797E930F10508F03DC28827EE58FF4FCA
:100F10008F4F0C947A17109233031092320384E6A9
:100F200090E090932F0380932E0342E350E0509380
:100F3000070340930603909311038093100328EC5A
:100F400030E030934503209344036AE070E07093EF
:100F500029036093280310921D0310921C0368E775
:100F600070E070930B0360930A0350932503409342
:100F70002403909331038093300330932B03209309
:100F80002A038DE290E090931B0380931A032AC2F8
:100F9000109233031092320324E630E030932F0393
:100FA00020932E0382E390E090930703809306033F
:100FB000309311032093100348EC50E05093450305
:100FC000409344036AE070E0709329036093280320
:100FD00010921D0310921C0368E770E070930B03DE
:100FE00060930A0390932503809324033093310385
:100FF0002093300350932B0340932A0390931B03B9
:1010000080931A03EFC1109233031092320384E6E7
:1010100090E090932F0380932E0342E350E050938F
:10102000070340930603909311038093100328EC69
:1010300030E030934503209344036AE070E07093FE
:1010400029036093280310921D0310921C0368E784
:1010500070E070930B0360930A0350932503409351
:101060002403909331038093300330932B03209318
:101070002A0387E390E090931B0380931A03B2C185
:10108000109233031092320384E690E090932F0382
:1010900080932E0342E350E05093070340930603EE
:1010A000909311038093100328EC30E030934503B4
:1010B000209344036AE070E070932903609328034F
:1010C00010921D0310921C0368E770E070930B03ED
:1010D00060930A03509325034093240390933103B4
:1010E0008093300330932B0320932A038CE390E00A
:1010F00090931B0380931A0375C1109233031092CF
:10110000320384E690E090932F0380932E0342E312
:1011100050E050930703409306039093110380938C
:10112000100328EC30E030934503209344036AE039
:1011300070E0709329036093280310921D031092AE
:101140001C0368E770E070930B0360930A035093ED
:10115000250340932403909331038093300330930D
:101160002B0320932A0381E490E090931B03809348
:101170001A0338C1109233031092320384E690E0D0
:1011800090932F0380932E0342E350E05093070384
:1011900040930603909311038093100328EC30E0F2
:1011A00030934503209344036AE070E07093290371
:1011B0006093280310921D0310921C0368E770E0EF
:1011C00070930B0360930A03509325034093240309
:1011D000909331038093300330932B0320932A03A1
:1011E00086E490E090931B0380931A03FBC0109257
:1011F00033031092320384E690E090932F038093A0
:101200002E0342E350E0509307034093060390936C
:1012100011038093100328EC30E0309345032093B2
:1012200044036AE070E070932903609328031092EE
:101230001D0310921C0368E770E070930B0360932A
:101240000A03509325034093240390933103809322
:10125000300330932B0320932A038BE490E0909388
:101260001B0380931A03BEC0109233031092320303
:101270008CE390E090932F0380932E0382E890E01C
:10128000909307038093060328EC30E0309311031A
:101290002093100384E690E09093450380934403E9
:1012A00042E150E0509329034093280310921D031C
:1012B00010921C034EE150E050930B0340930A033D
:1012C00044EB50E0509325034093240346EE50E056
:1012D00050931B0340931A034DEC50E050932303AB
:1012E00040932203309331032093300390932B03D8
:1012F00080932A0377C010923303109232038CE359
:1013000090E090932F0380932E0382E890E09093D7
:1013100007038093060328EC30E0309311032093F9
:10132000100384E690E0909345038093440342E1E8
:1013300050E0509329034093280310921D0310920C
:101340001C034EE150E050930B0340930A0344EB1F
:1013500050E0509325034093240342ED50E0509316
:101360001B0340931A0343EC50E050932303409334
:101370002203309331032093300390932B03809307
:101380002A0330C0109233031092320310922F03BD
:1013900010922E031092070310920603109211036D
:1013A00010921003109245031092440310922903E7
:1013B0001092280310921D0310921C0310920B032D
:1013C00010920A0310922503109224031092310305
:1013D0001092300310922B0310922A0310921B03D9
:1013E00010921A0320911A0330911B0330930503C6
:1013F0002093040310923B0310923A0330932D0381
:1014000020932C0381E090E090931F0380931E03B0
:1014100030930D0320930C0383E090E09093270317
:10142000809326034FE5429FC001439F900D1124F6
:10143000E4E6F0E0BF010E946717709343036093F6
:10144000420385E090E090933D0380933C034AE59E
:10145000429FC001439F900D1124BF010E94671756
:10146000709337036093360387E090E090932103F5
:101470008093200345E5429FC001439F900D1124B6
:10148000BF010E94671770931303609312038AE0F1
:1014900090E0909339038093380340E5429FC00168
:1014A000439F900D1124BF010E946717709303039F
:1014B000609302038CE090E09093190380931803EB
:1014C00070934103609340038FE090E090933F035B
:1014D00080933E0308959091D902937C81E0933CE0
:1014E00009F080E00895F7DF81110DC08091D902E5
:1014F000982F907F903F49F0982F9F7081E09F3008
:1015000029F080E0089580E0089582E008950F9327
:101510001F93CF93DF93EC018B01D6D9DD2314F514
:10152000D195C195D109FE01E05FFD4F2081209F3B
:10153000C001219F900D112424E630E0B9010E94E2
:101540006717FB01CE5BDD4F4881409FC001419F83
:10155000900D1124B9010E946717CB01BF010E94B1
:10156000FD1425C0209729F4B801C8010E94FD147C
:101570001EC0FE01EE5BFD4F2081209FC001219F18
:10158000900D112424E630E0B9010E946717FB0199
:10159000C05FDD4F4881409FC001419F900D1124E5
:1015A000B9010E946717CB01BF010E94FD14DF91B2
:1015B000CF911F910F9108950F931F93CF93DF93B6
:1015C000EC018B0193D9DD234CF5882799278C1BDF
:1015D0009D0B6AE070E00E9467179B01FB01E05FD2
:1015E000FD4F4081409FC001419F900D1124E4E6D2
:1015F000F0E0BF010E946717EB01D901AE5BBD4F60
:101600002C91209FC001219F900D1124BF010E94A9
:101610006717CB01BE010E94FD142CC0209729F44E
:10162000B801C8010E94FD1425C0CE016AE070E037
:101630000E9467179B01FB01EE5BFD4F4081409FBD
:10164000C001419F900D1124E4E6F0E0BF010E942B
:101650006717EB01D901A05FBD4F2C91209FC001FE
:10166000219F900D1124BF010E946717CB01BE017D
:101670000E94FD14DF91CF911F910F9108958091E9
:10168000D90290E0813F910508F029C2FC0188272A
:10169000E558FF4F8F4F0C947A17609104037091B7
:1016A000050380913A0390913B0331DF1092480388
:1016B0001092340381E080933503089580913403C0
:1016C0008D3F34F460E070E082EE9FEF20CF08950C
:1016D00060912C0370912D0380911E0390911F0344
:1016E00016DF1092480381E0809334038093350322
:1016F0000895809134038D3F34F460E070E082EE11
:101700009FEF05CF089560910C0370910D038091B8
:10171000260390912703FBDE1092480382E080931A
:10172000340381E0809335030895809134038D3F25
:1017300034F460E070E082EE9FEFE9CE089580918E
:10174000490390914A030C9750F087E090E0BCD891
:101750006CEE7FEF8CEE9FEF0E94FD1409C060914C
:1017600042037091430380913C0390913D03CFDE8F
:1017700081E08093480383E0809334031092350323
:101780000895809134038D3F34F460E070E082EE80
:101790009FEFBDCE08958091490390914A030C9725
:1017A00050F08FE090E090D86CEE7FEF8CEE9FEFE2
:1017B0000E94FD1409C06091360370913703809137
:1017C000200390912103A3DE81E08093480384E00D
:1017D00080933403109235030895809134038D3F34
:1017E00034F460E070E082EE9FEF91CE0895809136
:1017F000490390914A030C9750F08FE090E064D831
:101800006CEE7FEF8CEE9FEF0E94FD1409C060919B
:10181000120370911303809138039091390377DE9E
:1018200081E08093480385E0809334031092350370
:101830000895809134038D3F34F460E070E082EECF
:101840009FEF65CE0895609102037091030380912C
:101850001803909119035BDE81E08093480386E0D2
:1018600080933403109235030895809134038D3FA3
:1018700034F460E070E082EE9FEF49CE089560910D
:1018800040037091410380913E0390913F033FDEFE
:1018900081E0809348031092350386E080933403FF
:1018A0000895809134038C3F34F460E070E082EE60
:1018B0009FEF2DCE089585300CF419C160E070E0E3
:1018C0008EE190E024CE089580913403843034F08A
:1018D00060E070E08EE190E01ACE089560912C03F4
:1018E00070912D0380911E0390911F039195819516
:1018F000910962DE109248038FEF8093340381E0F8
:1019000080933503089580913403843034F060E08F
:1019100070E08EE190E0FBCD089560910C03709132
:101920000D0380912603909127039195819591094C
:10193000EEDD109248038EEF8093340381E08093B4
:101940003503089580913403843034F060E070E012
:101950008EE190E0DCCD08958091490390914A0397
:101960000C9758F089EF9FEF0E9464046CEE7FEFB4
:101970008CEE9FEF0E94FD140CC0609142037091A9
:10198000430380913C0390913D039195819591098A
:10199000BEDD81E0809348038DEF80933403109285
:1019A0003503089580913403843034F060E070E0B2
:1019B0008EE190E0ACCD08958091490390914A0367
:1019C0000C9758F081EF9FEF0E9464046CEE7FEF5C
:1019D0008CEE9FEF0E94FD140CC060913603709155
:1019E000370380912003909121039195819591096E
:1019F0008EDD81E0809348038CEF80933403109256
:101A00003503089580913403843034F060E070E051
:101A10008EE190E07CCD08958091490390914A0336
:101A20000C9750F081EF9FEF0E94640460E070E03B
:101A300080E090E0E2D70CC0609112037091130334
:101A400080913803909139039195819591095FDDDB
:101A500081E0809348038BEF809334031092350329
:101A6000089580913403843034F060E070E08EE1BA
:101A700090E04DCD08956091020370910303809131
:101A800018039091190391958195910940DD81E0AA
:101A9000809348038AEF80933403109235030895AE
:101AA00080913403843034F060E070E08EE190E0A7
:101AB0002ECD0895609140037091410380913E03C3
:101AC00090913F0391958195910921DD81E080936B
:101AD00048038AEF8093340310923503089581E020
:101AE0008093350360E070E080E090E086C7089561
:101AF0000F931F93CF93DF938B01109247031092A4
:101B00004603EC01892B49F0C801B9DD80914603F9
:101B1000909147038C179D07B8F3DF91CF911F91E8
:101B20000F9108950F931F93CF93DF938C01109221
:101B3000520310925103C2E3D0E0CDDC882339F088
:101B4000109252031092510385E190E0C3C0C83354
:101B5000D10509F46AC03CF4C233D10511F1C33395
:101B6000D105B9F1B5C0CA33D10529F00CF46DC067
:101B7000EB9751F0ADC080914603909147038C32B2
:101B8000914008F47BC086C020912A0330912B033A
:101B900080914603909147038217930708F481C010
:101BA00090C08091510390915203C29760F460916C
:101BB0000A0370910B0380911C0390911D0398DF21
:101BC000C3E3D0E0BACF809122039091230357DD85
:101BD000B4CF8091D902811110C0809128039091D7
:101BE0002903B80191958195910991DC10925203D6
:101BF00010925103C8E3D0E0A0CF40E061E080E064
:101C000038D9809122039091230339DD80915103CB
:101C100090915203893B9B4008F48FCF109252035E
:101C2000109251038BE090E055C08091D902807CE6
:101C300009F483CF1092520310925103B80180E04F
:101C400090E065DCC9E3D0E078CF109247031092B2
:101C500046038091D9028F7109F46FCF109252031D
:101C60001092510360911C0370911D0380910A032F
:101C700090910B033DDFCAE3D0E05FCF8091220358
:101C800090912303FCDC80914603909147038C32B2
:101C90009140A0F31092470310924603CBE3D0E0AB
:101CA0004CCF8091300390913103E9DC20914603C1
:101CB0003091470380912A0390912B03281739070D
:101CC00080F310924703109246038BE090E002C02D
:101CD0008BE090E0DF91CF911F910F9108950F93CA
:101CE0001F93CF93DF938C0184E690E00E949A03C8
:101CF000CCE3D0E0F0DB811199C0C234D10509F406
:101D00004AC03CF4CC33D10519F1CD33D10561F192
:101D100090C0C434D10531F00CF449C0C534D105AC
:101D200051F087C080914603909147038C329140D7
:101D300008F452C05DC020912A0330912B0380919A
:101D40004603909147038217930708F458C067C071
:101D500060910A0370910B0380911C0390911D0305
:101D6000C7DECDE3D0E0C6CF8091D90281110DC08E
:101D7000B8018091280390912903C9DB84E690E0A3
:101D80000E949A03C2E4D0E0B5CF809122039091E3
:101D9000230375DCAFCF8091D902837009F4AACFF9
:101DA000B80180E090E0B3DBC3E4D0E0A3CF1092B1
:101DB0004703109246038091D902887F09F49ACF95
:101DC00060911C0370911D0380910A0390910B0395
:101DD0008FDEC4E4D0E08ECF809122039091230364
:101DE0004EDC80914603909147038C329140A0F3E2
:101DF0001092470310924603C5E4D0E07BCF809158
:101E00003003909131033BDC20914603309147032E
:101E100080912A0390912B032817390780F31092A1
:101E20004703109246038BE090E005C085E190E007
:101E300002C08BE090E0DF91CF911F910F91089548
:101E4000BC018091D90290E0813F910508F0EBC17F
:101E5000FC018827E459FE4F8F4F0C947A1780912C
:101E60003A0390913B0353DB1092480310923403E2
:101E700081E0809335030895809134038D3F34F4DD
:101E800060E070E082EE9FEF42CB089580911E03E8
:101E900090911F033CDB1092480381E08093340350
:101EA000809335030895809134038D3F34F460E0CE
:101EB00070E082EE9FEF2BCB0895809126039091E6
:101EC000270325DB1092480382E08093340381E0EE
:101ED000809335030895809134038D3F34F460E09E
:101EE00070E082EE9FEF13CB0895809149039091AB
:101EF0004A030C9750F087E090E00E9464046CEE77
:101F00007FEF8CEE9FEF79D505C080913C039091D7
:101F10003D03FDDA81E08093480383E0809334033E
:101F2000109235030895809134038D3F34F460E0BE
:101F300070E082EE9FEFEBCA089580914903909183
:101F40004A030C9750F08FE090E00E9464046CEE1E
:101F50007FEF8CEE9FEF51D505C0809120039091CB
:101F60002103D5DA81E08093480384E08093340331
:101F7000109235030895809134038D3F34F460E06E
:101F800070E082EE9FEFC3CA08958091490390915B
:101F90004A030C9750F08FE090E00E9464046CEECE
:101FA0007FEF8CEE9FEF29D505C08091380390918B
:101FB0003903ADDA81E08093480385E080933403F0
:101FC000109235030895809134038D3F34F460E01E
:101FD00070E082EE9FEF9BCA089580911803909164
:101FE000190395DA81E08093480386E080933403F7
:101FF000109235030895809134038D3F34F460E0EE
:1020000070E082EE9FEF83CA089580913E03909125
:102010003F037DDA81E0809348031092350386E028
:10202000809334030895809134038C3F34F460E04E
:1020300070E082EE9FEF6BCA089585300CF4FBC010
:1020400060E070E08EE190E062CA08958091340310
:10205000843034F060E070E08EE190E058CA08957A
:1020600080911E0390911F03919581959109A4DAA7
:10207000109248038FEF8093340381E080933503FF
:10208000089580913403843034F060E070E08EE194
:1020900090E03DCA08958091260390912703919581
:1020A0008195910934DA109248038EEF80933403BE
:1020B00081E080933503089580913403843034F0B7
:1020C00060E070E08EE190E022CA089580914903BB
:1020D00090914A030C9750F089EF9FEF0E9464049F
:1020E0006CEE7FEF8CEE9FEF88D408C080913C03AC
:1020F00090913D0391958195910909DA81E0809352
:1021000048038DEF80933403109235030895809136
:102110003403843034F060E070E08EE190E0F7C981
:1021200008958091490390914A030C9750F081EFF4
:102130009FEF0E9464046CEE7FEF8CEE9FEF5DD406
:1021400008C0809120039091210391958195910978
:10215000DED981E0809348038CEF809334031092A2
:102160003503089580913403843034F060E070E0EA
:102170008EE190E0CCC908958091490390914A0383
:102180000C9750F081EF9FEF0E94640460E070E0D4
:1021900080E090E032D408C08091380390913903F8
:1021A000919581959109B3D981E0809348038BEF94
:1021B0008093340310923503089580913403843062
:1021C00034F060E070E08EE190E0A1C90895809164
:1021D00018039091190391958195910998D981E0FF
:1021E000809348038AEF8093340310923503089557
:1021F00080913403843034F060E070E08EE190E050
:1022000086C9089580913E0390913F0391958195F1
:1022100091097DD981E0809348038AEF809334034C
:1022200010923503089581E08093350360E070E0FB
:1022300080E090E0E2C308956F927F928F929F9228
:10224000AF92BF92CF92DF92EF92FF920F931F93C4
:10225000CF93DF938C01109252031092510310928E
:1022600047031092460341E060E081E00E94390795
:10227000C3E1D0E00F2EFFE16F2EF02D712CCC24A6
:10228000C394D12C0F2EF8E18F2EF02D912C689451
:10229000EE24E1F8F12C0F2EF7E1AF2EF02DB12C4A
:1022A000FE017397EC31F10508F0C2C18827E35AAB
:1022B000FD4F8F4F1FC660913203709133038091A1
:1022C0002E0390912F0314DCC801BADDCA2DDB2D3B
:1022D000E7CF8091510390915203813D974008F0E0
:1022E000AAC101D9882391F18130C9F08230C1F6A9
:1022F000F0921503E092140383ED9FEF0E946404B3
:10230000B80180E090E079D388EE93E00E949A03D0
:102310001092520310925103C82DD92DC1CFD092E3
:102320001503C09214038DE290E00E94640460E003
:1023300070E0C80162D384E690E00E949A03109294
:10234000520310925103C82DD92DAACFC80178DDB0
:10235000A7CF809114039091150381309105B1F0BE
:10236000029709F09DCF83ED9FEF0E946404B801AE
:1023700080E090E042D38091D902811102C0C62D45
:10238000D72D10925203109251038ACF8DE290E024
:102390000E94640460E070E0C8012FD38091D902EC
:1023A000811102C0C9E2D0E0109252031092510391
:1023B00077CF40E060E081E00E94390783ED9FEF36
:1023C0000E946404B80180E090E017D38091D902A4
:1023D000982F9C7339F01092520310925103CDE262
:1023E000D0E05ECF81FF5CCF109252031092510378
:1023F000C0E2D0E055CF83ED9FEF0E946404B801A6
:1024000080E090E0FAD28091D9028F70813009F09B
:1024100047CFC1E2D0E044CF83ED9FEF0E94640438
:10242000B80180E090E0E9D28091D902807F09F084
:1024300037CFC2E2D0E034CF8FE090E00E94640456
:10244000B80180E090E0D9D28091D9028C7309F470
:1024500027CF10925203109251031092470310920B
:102460004603C3E2D0E01CCF41E060E081E00E947F
:1024700039078EE190E00E946404B80180E090E0AA
:10248000BCD28091D9028C7309F40ACF1092520306
:10249000109251031092470310924603CEE2D0E00F
:1024A000FFCE40E060E081E00E9439078DE290E0DD
:1024B0000E94640460E070E0C8019FD28091D9025C
:1024C000982F9C7339F01092520310925103CDE271
:1024D000D0E0E6CE807C803C09F0E2CE1092520340
:1024E00010925103CAE2D0E0DBCE40E061E080E030
:1024F0000E9439078DE290E00E94640460E070E081
:10250000C8017BD28091D902807F803809F0C8CE83
:10251000CBE2D0E0C5CE41E060E080E00E94390728
:102520008DE290E00E94640460E070E0C80165D232
:102530008091D902807F09F0B3CECCE2D0E0B0CE5A
:1025400041E060E081E00E94390781EF9FEF0E9447
:10255000640460E070E0C80150D28091D9028C73AD
:1025600009F49ECE10925203109251031092470329
:1025700010924603CDE2D0E093CE41E060E081E0EE
:102580000E9439078EE190E00E94640460E070E0F0
:10259000C80133D28091D9028C7309F481CE109294
:1025A0005203109251031092470310924603CEE259
:1025B000D0E076CE41E061E081E00E9439071092E0
:1025C0004703109246038CE291E00E949A038091A7
:1025D000460390914703883C910548F4C80130DCDC
:1025E0008091460390914703883C9105B8F310927F
:1025F0004703109246038091440390914503892B31
:1026000081F080911003909111031ADC2091460310
:10261000309147038091440390914503281739076F
:1026200080F310924E0310924D038BE090E005C0B2
:102630008BE090E002C084E690E0DF91CF911F91A3
:102640000F91FF90EF90DF90CF90BF90AF909F9051
:102650008F907F906F9008950E946107C0E00DE019
:102660001BE0DCE0CB3009F45BC038F4C13041F151
:1026700080F0C23009F0DBC035C0CD3009F499C01C
:1026800008F481C0C53109F4AAC0C43609F0CFC02E
:10269000B7C00E940F05813071F484E690E00E947B
:1026A0009A032FEF89E698E1215080409040E1F7AE
:1026B00000C0000005C083E00E94FC04882349F3A9
:1026C0000E940F05882329F083E00E94FC048823E0
:1026D000B9F31092520310925103109250031092CA
:1026E0004F0307C08091510390915203883B9B4058
:1026F00050F480E090E00E94640460E070E080E0CC
:1027000090E07BD1EFCF84E690E00E949A03109294
:102710005203109251031092500310924F0310C0B5
:1027200020914F033091500380911603909117032D
:102730008217930728F4109252031092510367C036
:102740000E946B0A882329F01092520310925103C1
:1027500046C00E94730A813041F0823061F41092C9
:10276000520310925103CD2F07C0109252031092C2
:102770005103C02F01C0C12F80911A0390911B03F8
:102780000E943F0B6FCF0E946B0A882329F01092A2
:1027900052031092510323C080912403909125038A
:1027A000C1D9C82F109252031092510310923503D1
:1027B00059CF0E946B0A882329F01092520310927D
:1027C00051030DC0809124039091250388DAC82F0E
:1027D00010925203109251031092350343CF84E6B6
:1027E00090E00E949A03809106039091070324DDF4
:1027F000C82F10925203109251031092350332CF1A
:102800008091510390915203843F914030F460E0F5
:1028100070E080E090E0F1D0F3CF60E070E080E025
:1028200090E0EBD080E090E00E946404E9CF109249
:1028300052031092510374CF1F920F920FB60F9252
:1028400011240BB60F922F933F934F935F936F9387
:102850007F938F939F93AF93BF93EF93FF9386E004
:1028600086BDE4D20E9487030E94D6040E94EF0234
:102870008091D9020E943607FF91EF91BF91AF91ED
:102880009F918F917F916F915F914F913F912F9188
:102890000F900BBE0F900FBE0F901F90189580E801
:1028A00080BF0E94440476D0A8D20E949B020E945E
:1028B0007B030E9428070E94B3040E94FB030E942E
:1028C0008A0480E090E00E9464040E9475030C94E6
:1028D00059050895CF93DF930E94BD02EC0160E09B
:1028E00083E00E943C0584E68C9F90018D9F300D13
:1028F000112436952795A1EABFEB04D3880F892FC1
:10290000881F990B91950E94CF050DC084E190E03E
:102910000E949A032FEF81EE94E021508040904076
:10292000E1F700C000000E94BD028C32914070F3BC
:10293000DF91CF910895B3DF789460E070E080E09C
:1029400090E05BD081E08093080284E190E00E94F7
:102950009A0360E083E00E943C0584E792E00E94D5
:10296000BF0561E082E00E943C058CE792E00E9496
:10297000BF052FEF8DE399E4215080409040E1F7AF
:1029800000C000000E945005A5DF72D065DE81E026
:1029900090E008958DB1846C8DB98DB188638DB947
:1029A00084B1876084B985B1876085B989EA8093ED
:1029B000900082E080939100109295001092940014
:1029C0001092970010929600109299001092980021
:1029D00010929B0010929A0010929D0010929C0001
:1029E0000895813011F4729A089572980895813093
:1029F00011F4769A0895769808950F931F93CF93C4
:102A0000DF93EC018B0177231CF081E0EADF05C046
:102A100011950195110980E0E4DFDD231CF081E0D0
:102A2000E6DF05C0D195C195D10980E0E0DF0F3F19
:102A3000110519F014F00FEF10E0CF3FD10519F098
:102A400014F0CFEFD0E0112314F400E010E0109365
:102A5000990000939800DD2314F4C0E0D0E0D093F7
:102A60009B00C0939A00DF91CF911F910F91089521
:102A7000CF93DF93CCEDD2E0B8C10E940A0582303B
:102A800009F491C028F4882361F08130E9F179C11B
:102A9000843009F4F9C008F4E7C0853009F445C171
:102AA00070C140E060E081E00E94390780E00E9450
:102AB000FC04882331F00E944F0384E190E00E94DF
:102AC0009A0381E00E94FC04882331F00E942903CC
:102AD00084E690E00E949A0382E00E94FC0488232E
:102AE00031F00E940A038CE291E00E949A0383E095
:102AF0000E94FC04882309F478C10E940A038CE236
:102B000091E00E949A0371C140E061E080E00E9480
:102B1000390781E00E94FC04882361F060E070E0E6
:102B200086E09FEF6ADF8FE39CE90197F1F700C031
:102B300000005BC180E00E94FC04882361F060E03B
:102B400070E08AEF90E059DF8FE39CE90197F1F79D
:102B500000C000004AC183E00E94FC04882361F0A9
:102B600066E07FEF80E090E048DF8FE39CE901972B
:102B7000F1F700C0000039C182E00E94FC04882304
:102B800061F06AEF70E080E090E037DF8FE39CE96E
:102B90000197F1F700C0000028C160E070E080E01C
:102BA00090E02BDF22C141E060E080E00E94390725
:102BB00082E00E94FC048823B9F080910602909183
:102BC00007020297909307028093060280E090E04C
:102BD0000E9464049FEF20E782E0915020408040F3
:102BE000E1F700C0000001C181E00E94FC048823DD
:102BF000B9F0809106029091070202969093070225
:102C00008093060280E090E00E9464049FEF20E73A
:102C100082E0915020408040E1F700C00000E5C014
:102C200080E00E94FC04811106C083E00E94FC0445
:102C3000882309F4DAC00E9481049FEF23ED80E32A
:102C4000915020408040E1F700C0000088EC90E007
:102C50000E949A039FEF23EC89E09150204080402E
:102C6000E1F700C00000C1C040E061E081E00E94E7
:102C7000390760E080E00E943C058091EF0290916E
:102C8000F0020E94CF05B1C041E061E080E00E9407
:102C900039070E94500560E080E00E943C058E8567
:102CA0009F850E94CF0560E084E00E943C058C85F2
:102CB0009D850E94CF0560E088E00E943C058A85E2
:102CC0009B850E94CF0560E08CE00E943C058885D2
:102CD00099850E94CF0561E080E00E943C058E81CD
:102CE0009F810E94CF0561E084E00E943C058C81B9
:102CF0009D810E94CF0561E088E00E943C058A81A9
:102D00009B810E94CF0561E08CE00E943C05888198
:102D100099810E94CF059FEF21EE84E091502040E1
:102D20008040E1F700C0000060C041E060E081E069
:102D30000E94390782E00E94FC04882371F083E23C
:102D400090E00E9464049FEF20E782E091502040D1
:102D50008040E1F700C0000048C081E00E94FC0410
:102D6000882309F442C08DED9FEF0E9464049FE721
:102D700022E382E0915020408040E1F700C0000053
:102D800034C040E060E080E00E94390780E00E94AB
:102D9000FC04882339F01092080288EC90E00E942D
:102DA0009A0323C083E00E94FC04882339F0109228
:102DB000080288EC90E00E949A0317C081E00E940C
:102DC000FC04882339F01092080288EC90E00E94FD
:102DD0009A030BC082E00E94FC04882331F0109219
:102DE000080288EC90E00E949A03809108028130EA
:102DF00009F443CEDF91CF910895109250031092C1
:102E00004F0310924E0310924D03109247031092FD
:102E10004603109252031092510314BC83E085BD07
:102E200086E086BD81E080936E0008958091510315
:102E30009091520301969093520380935103809195
:102E4000460390914703019690934703809346036E
:102E500080914F039091500301969093500380937B
:102E60004F038091480381110AC080914D039091D6
:102E70004E03019690934E0380934D0315C081300D
:102E800099F410924E0310924D0380914903909152
:102E90004A0301978A309105A8F48AE090E0909364
:102EA0004A0380934903089580914D0390914E0306
:102EB0008D32914058F081E590E090934A038093E1
:102EC0004903089590934A0380934903089597FB1B
:102ED000072E16F4009406D077FD08D022D007FC08
:102EE00005D03EF4909581959F4F0895709561951A
:102EF0007F4F0895EE0FFF1F881F8BBF0790F6913D
:102F0000E02D1994A29FB001B39FC001A39F700D43
:102F1000811D1124911DB29F700D811D1124911DE1
:102F20000895AA1BBB1B51E107C0AA1FBB1FA61710
:102F3000B70710F0A61BB70B881F991F5A95A9F762
:102F400080959095BC01CD0108950F931F93CF9369
:102F5000DF938230910510F482E090E0E091550318
:102F6000F091560320E030E0A0E0B0E0309719F196
:102F7000408151810281138148175907C8F0841795
:102F8000950769F4109731F012960C9312971396E7
:102F90001C9327C0009355031093560322C021159C
:102FA000310519F04217530718F49A01BD01EF01DA
:102FB000DF01F801DBCF21153105F9F0281B390BB2
:102FC0002430310580F48A819B816115710521F0DF
:102FD000FB019383828304C090935603809355032F
:102FE000FE01329644C0FE01E20FF31F81939193DC
:102FF00022503109398328833AC0209153033091FC
:103000005403232B41F420910202309103023093A8
:1030100054032093530320910002309101022115A3
:10302000310541F42DB73EB740910402509105029D
:10303000241B350BE0915303F0915403E217F3077F
:10304000A0F42E1B3F0B2817390778F0AC014E5F18
:103050005F4F2417350748F04E0F5F1F50935403FE
:10306000409353038193919302C0E0E0F0E0CF01DD
:10307000DF91CF911F910F910895CF93DF93009728
:1030800009F481C0FC01329713821282A09155038A
:10309000B0915603109781F420813181820F931FE4
:1030A00020915303309154032817390751F5F093B9
:1030B0005403E093530367C0ED0120E030E0CE17E6
:1030C000DF0740F44A815B819E0141155105F1F013
:1030D000EA01F5CFD383C28340815181840F951FCC
:1030E000C817D90759F488819981840F951F0296D2
:1030F000918380838A819B8193838283211531050B
:1031000029F4F0935603E09355033DC0E901FB8396
:10311000EA8349915991C40FD51FEC17FD0761F45B
:1031200080819181840F951F0296E901998388839C
:10313000828193819B838A83E0E0F0E012968D91F7
:103140009C911397009719F0FD01DC01F7CF8D9149
:103150009C9111979D012E5F3F4F820F931F2091ED
:103160005303309154032817390769F4309729F431
:10317000109256031092550302C013821282B0932C
:103180005403A0935303DF91CF910895F894FFCF98
:10319000000057032000DC05012020003100300032
:1031A0006465666768696A6B6C6D6E6F6F7071726B
:1031B000737475767778797A7B7D7E7F808182845F
:1031C000858687898A8B8D8E9091939596989A9C07
:1031D0009EA064636261605F5E5D5C5B5A59595892
:1031E00057565554535251504F4E4D4B4A494847EC
:1031F00046444342413F3E3D3B3A38373533323017
:103200002E2C2A28454955204D4352004549552E1C
:083210004544552E564E000006
:00000001FF
