S00F0000454955204D43522E7372656330
S113000078C2000097C2000095C200000FC400002F
S113001024C400008FC200008DC200008BC2000007
S113002089C2000087C2000085C2000083C20000AC
S113003081C200007FC200007DC200007BC20000BC
S113004079C2000077C2000075C2000073C20000CC
S113005071C200006FC200006DC200000C94B113A5
S113006069C2000067C2000065C2000063C20000EC
S113007061C200005FC200005DC200005BC20000FC
S113008059C2000057C2000055C2000053C200000C
S113009051C200004FC200004DC200004BC200001C
S11300A049C2000047C2000045C2000043C200002C
S11300B041C200003FC200003DC200003BC200003C
S11300C039C2000037C2000035C2000033C200004C
S11300D031C200002FC200002DC200002BC200005C
S11300E029C200008B07C807030840088108BE081E
S11300F0FB08380977097F0C630C1B0C470CC30BF6
S11301009B0DEF0B1B0C8C0B9B0D9B0D9B0DA70BE1
S11301109B0DC30BA30D920C9B0D9B0D9B0D9B0D77
S11301209B0D9B0D9B0D7B0B9B0D9B0D9B0D8C0BBE
S11301309B0DA70B9B0DD00C9B0D9B0D9B0D9B0D3D
S11301409B0D9B0D9B0D9B0D9B0D9B0D9B0D9B0D6B
S11301509B0D9B0D9B0DB10C9B0D9B0D9B0D9B0D46
S11301609B0D9B0D9B0D920C9B0D9B0D9B0D7B0B77
S11301709B0D9B0D9B0D2E0D9B0D9B0D9B0D9B0DA8
S11301809B0D9B0D9B0D9B0D9B0D9B0D9B0D9B0D2B
S11301909B0D9B0D9B0D9B0D9B0D9B0D9B0D9B0D1B
S11301A09B0D9B0D9B0D9B0D9B0D9B0D9B0D9B0D0B
S11301B09B0D9B0D9B0DFF0C9B0D9B0D9B0D9B0D98
S11301C09B0D9B0D9B0D9B0D9B0D9B0D9B0D9B0DEB
S11301D09B0D9B0D9B0DD00C9B0D9B0D9B0D9B0DA7
S11301E09B0D9B0D9B0DB10C9B0D9B0D9B0D9B0DB6
S11301F09B0D9B0D9B0D7C0D7F0C9B0D7F0C9B0D14
S11302009B0D9B0D9B0D9B0D9B0D9B0D9B0D9B0DAA
S11302109B0D9B0D9B0D9B0D9B0D9B0D9B0D9B0D9A
S11302209B0D9B0D9B0D9B0D9B0D9B0D9B0D9B0D8A
S11302309B0D9B0D9B0D9B0D9B0D9B0D9B0D9B0D7A
S11302409B0D9B0D9B0D9B0D9B0D9B0D9B0D9B0D6A
S11302509B0D9B0D9B0D9B0D9B0D9B0D9B0D9B0D5A
S11302609B0D9B0D9B0D9B0D9B0D9B0D9B0D9B0D4A
S11302709B0D9B0D9B0D5D0D7F0C9B0D9B0D9B0D95
S11302809B0D9B0D9B0D9B0D9B0D9B0D9B0D9B0D2A
S11302909B0D9B0D9B0D9B0D9B0D9B0D9B0D9B0D1A
S11302A09B0D9B0D9B0D9B0D9B0D9B0D9B0D9B0D0A
S11302B09B0D9B0D9B0D2E0D9B0D9B0D9B0D9B0D67
S11302C09B0D9B0D9B0D9B0D9B0D9B0D9B0D9B0DEA
S11302D09B0D9B0D9B0DA30D970E7F0E3F0E670E7E
S11302E0EF0D970F170E3F0EC00D970F970F970F37
S11302F0D70D970FEF0D9F0FAA0E970F970F970F1C
S1130300970F970F970F970FB30D970F970F970F9F
S1130310C00D970FD70D970FE00E970F970F970FFC
S1130320970F970F970F970F970F970F970F970F99
S1130330970F970F970F970FC50E970F970F970F5C
S1130340970F970F970F970FAA0E970F970F970F67
S1130350B30D970F970F970F360F970F970F970FB0
S1130360970F970F970F970F970F970F970F970F59
S1130370970F970F970F970F970F970F970F970F49
S1130380970F970F970F970F970F970F970F970F39
S1130390970F970F970F970F0B0F970F970F970FB5
S11303A0970F970F970F970F970F970F970F970F19
S11303B0970F970F970F970FE00E970F970F970FC1
S11303C0970F970F970F970FC50E970F970F970FCC
S11303D0970F970F970F970F7C0F970E970F970E06
S11303E0970F970F970F970F970F970F970F970FD9
S11303F0970F970F970F970F970F970F970F970FC9
S1130400970F970F970F970F970F970F970F970FB8
S1130410970F970F970F970F970F970F970F970FA8
S1130420970F970F970F970F970F970F970F970F98
S1130430970F970F970F970F970F970F970F970F88
S1130440970F970F970F970F970F970F970F970F78
S1130450970F970F970F970F610F970E970F970F9F
S1130460970F970F970F970F970F970F970F970F58
S1130470970F970F970F970F970F970F970F970F48
S1130480970F970F970F970F970F970F970F970F38
S1130490970F970F970F970F360F970F970F970F89
S11304A0970F970F970F970F970F970F970F970F18
S11304B0970F970F970F970F9F0FF70F3B113B1154
S11304C03B1105104F103B113B113B113B113B11EC
S11304D03B1189103B113B113B113B113B113B116B
S11304E03B113B113B11B3103B113B113B11DD1090
S11304F0FA1011241FBECFEFD1E2DEBFCDBF00E062
S11305000CBF12E0A0E0B2E0EAEBF0E300E00BBFC6
S113051002C007900D92A838B107D9F723E0A8E8E4
S1130520B2E001C01D92A136B207E1F70E94301477
S11305300C945B1865CD80E480937C0084E8809300
S11305407A008CE291E09093DB028093DA020895C2
S1130550806480937C00EAE7F0E08081806480839B
S1130560808184FFFDCFEAE7F0E0808180618083B1
S11305708091780090917900089580E480937C00C4
S1130580EBE7F0E0808188608083EAE7F0E0808137
S113059080648083808184FFFDCFEAE7F0E080817E
S11305A080618083EBE7F0E08081877F80838091A6
S11305B078009091790008950F931F93CF930CEED8
S11305C012E0C0E08C2FC4DFF801929382938F0174
S11305D0CF5FC830B9F7CF911F910F9108958091E3
S11305E08802811116C0E8DFECEDF2E0A9E8B2E080
S11305F06CEE72E080E0880F419151912D913D9114
S11306002417350708F48160E617F707A1F78093EC
S1130610D9020895CF93DF93E9EAF2E0C9EBD2E07F
S1130620A9E8B2E049EB52E0219131918991999185
S1130630820F931F969587958D939D93E417F507E5
S113064099F740E169E872E088E18CD0DF91CF91BD
S11306500895CF93DF93ECEDF2E0A9EBB2E02CEE3A
S113066032E0ED018191919189939993E217F30717
S1130670C9F7E9EAF2E0C9E8D2E049EB52E0219196
S113068031918D919D91820F931F969587958993B2
S11306909993E417F50799F7DF91CF910895CF93D4
S11306A0DF93ACEDB2E0E9EAF2E02CEE32E0EF01E8
S11306B08D919D9189939993A217B307C9F7C9EBBB
S11306C0D2E0A9E8B2E049EB52E02191319189915D
S11306D09991820F931F969587958D939D93E41717
S11306E0F50799F7DF91CF91089540E169E872E049
S11306F088E160C00895249A1092EE021092ED02EF
S11307001092EC0208952C9A08952C9808958091E3
S1130710EC02882371F08091ED029091EE02019732
S11307209093EE028093ED02892B19F41092EC025F
S1130730ECCF08959093EE028093ED0281E08093D4
S1130740EC02E1CF0895F999FECF90E092BD81BD0E
S113075060BD8FB78F778FBFFA9AF99A8FB7806889
S11307608FBF08950F931F93CF93DF936115710586
S113077071F0442361F0C82F8B01D42FD80FF801F6
S113078061918F018C2FDFDFCF5FCD13F8CFDF9125
S1130790CF911F910F910895F999FECF9FB79F773D
S11307A09FBF90E092BD81BDF89A8FB780688FBFDC
S11307B080B508950F931F93CF93DF93C82FD42F41
S11307C06115710539F4842F90E00E943A17BC0139
S11307D0892B61F0DD2351F08B01DC0F8C2FDCDFE2
S11307E0F80181938F01CF5FCD13F8CFDF91CF91C3
S11307F01F910F91089580EA8093690010926A0016
S11308008CE08DBB8CBB8AB1837F8AB98EB18C603E
S11308108EB91092F0021092EF021092F10210922F
S1130820F3021092F2021092F40208951F920F92B2
S11308300FB60F9211248F939F938091EF029091A2
S1130840F00201969093F0028093EF029F918F91B2
S11308500F900FBE0F901F9018951F920F920FB616
S11308600F9211248F939F938091F2029091F3023F
S113087001969093F3028093F2029F918F910F90CF
S11308800FBE0F901F901895259A80E880938000E2
S113089082E180938100109285001092840083E1AC
S11308A08093870088E88093860085E080938900A0
S11308B08CED8093880010928B0010928A00109225
S11308C08D0010928C00089526EFAC012403C00122
S11308D0259F900D11242091060230910702820F6A
S11308E0931F9093890080938800089520910602B5
S11308F030910702281B390B30938900209388001C
S113090008956091060288E21EDF6091070289E281
S11309101ACF089589E240DF1092060280930702FD
S113092088E23ADF2091060230910702A901480FBC
S1130930511DCA0150930702409306028C3B52E0BA
S1130940950738F48CED95E09093070280930602A6
S113095008958D3F984030F08CED95E09093070218
S1130960809306020895A1E0B1E08C91807F8C937E
S1130970E2E0F1E080818F6080838C918F708C93B2
S11309808081806F80838FE08093FA028093FC02E1
S1130990809300038093FD0280EF80930103809392
S11309A0F8028093FF028093F90208954091FD02BA
S11309B0409300039091FC029093FD025091F90240
S11309C05093FF022091F8022093F90280910001D4
S11309D0382F307F3093F8028F708093FC022313FA
S11309E004C0521302C050930103981304C0491366
S11309F002C04093FA0208952091FA0230E0A9015E
S1130A0002C0559547958A95E2F7CA0151E08527BA
S1130A10817008958091010382958F70089580916B
S1130A20F6020895479A80E18A95F1F7479887E599
S1130A3092E00197F1F700C00000089598B18F701B
S1130A40907F892B88B90895CF93C82F82958F7092
S1130A50F5DFE8DF8C2FF2DFE5DFCF910895CF9348
S1130A60C82F459882958F70E9DFDCDF8C2FE6DF95
S1130A70D9DF459ACF9108954598611102C08058F5
S1130A8001C08054EFEDFEE23197F1F700C00000A1
S1130A90E6DF8FE99FE00197F1F700C000000895B9
S1130AA081E0DDDF8FE39CE90197F1F700C00000EE
S1130AB0089587B18F6087B987B1806A87B93E9AF4
S1130AC088B1807F88B92FEF89EF90E02150804072
S1130AD09040E1F700C0000045988FE19EE4019743
S1130AE0F1F700C0000046988FE19EE40197F1F70A
S1130AF000C0000083E0B3DF8FE39CE90197F1F7C6
S1130B0000C000008FDF8FE39CE90197F1F700C07C
S1130B10000088DF8FE39CE90197F1F700C0000033
S1130B2081DF8FE39CE90197F1F700C0000082E0C8
S1130B3096DF8FE39CE90197F1F700C0000088E29B
S1130B4083DF8FE39CE90197F1F700C000008CE09C
S1130B5086DF8FE39CE90197F1F700C0000086E08F
S1130B607EDF8FE39CE90197F1F700C0000098DF76
S1130B7060E080E081CF0895805D66CF0895CF93D3
S1130B80DF93EC01459A8881882329F021965CDF64
S1130B9089918111FCCF4598DF91CF9108950F93EE
S1130BA01F93CF93DF93AC018A30910508F069C09D
S1130BB09C01329522952F7023273F702327A7E4A9
S1130BC0B3E00E9417179695879596958795969505
S1130BD0879560E177E2869F9001879F300D969F0D
S1130BE0300D1124421B530B9A01369527953695E7
S1130BF0279536952795A5ECB0E20E941717929594
S1130C0082958F7089279F70892768EE73E0869F8D
S1130C109001879F300D969F300D1124421B530B7A
S1130C209A013695279536952795ABE7B4E10E944E
S1130C3017179695879564E6689F9001699F300D14
S1130C401124421B530B9A01ADECBCEC0E94171704
S1130C509695879596958795969587959C01220FED
S1130C60331F880F991F880F991F880F991F820FB0
S1130C70931F242F281B822F7FDF89E092E07FDFE0
S1130C80E2C08436910508F06DC09C01329522952E
S1130C902F7023273F702327A7E4B3E00E94171780
S1130CA096958795969587959695879560E177E2D1
S1130CB0869F9001879F300D969F300D1124421B13
S1130CC0530B9A0136952795369527953695279592
S1130CD0A5ECB0E20E941717929582958F70892730
S1130CE09F70892768EE73E0869F9001879F300D7F
S1130CF0969F300D1124421B530B9A01369527956C
S1130D0036952795ABE7B4E10E9417178C01169529
S1130D10079524E6209FC001219F900D11248A018C
S1130D20081B190B9801ADECBCEC0E941717EC01E1
S1130D30D695C795D695C795D695C7958C2F1CDFA4
S1130D40CE01880F991FCC0FDD1FCC0FDD1FCC0FF8
S1130D50DD1FC80FD91F802F8C1B0EDF8AE092E0A5
S1130D600EDF71C0883E23E0920708F06CC09C013E
S1130D70329522952F7023273F702327A7E4B3E0F1
S1130D800E941717969587959695879596958795BA
S1130D9060E177E2869F9001879F300D969F300D2A
S1130DA01124421B530B9A013695279536952795A6
S1130DB036952795A5ECB0E20E9417178C01129581
S1130DC002950F7001271F70012728EE33E0029F60
S1130DD0C001039F900D129F900D11248A01081BDE
S1130DE0190B98013695279536952795ABE7B4E10D
S1130DF00E941717EC01D695C7958C2FBDDE24E60B
S1130E002C9FC0012D9F900D1124081B190B9801D4
S1130E10ADECBCEC0E941717EC01D695C795D6959E
S1130E20C795D695C7958C2FA7DECE01880F991F3D
S1130E30CC0FDD1FCC0FDD1FCC0FDD1FC80FD91F5A
S1130E40802F8C1B99DEDF91CF911F910F91089514
S1130E508FEF81B982B9EAE0F1E080818863808311
S1130E60EBE0F1E08081877C80830895809582B9EE
S1130E700895882331F0EBE0F1E080818061808384
S1130E8005C0EBE0F1E080818F7E8083662331F042
S1130E90EBE0F1E080818062808305C0EBE0F1E06B
S1130EA080818F7D8083442331F0EBE0F1E0808109
S1130EB0886080830895EBE0F1E08081877F808300
S1130EC0089580E090E000DD60E070E080E090E074
S1130ED00E94921410925C0310925B0310925A03C6
S1130EE01092590380E395E79093190380931803B4
S1130EF010923C0381E080933D038CDD90E0FC0183
S1130F003797E930F10508F059C28827EE58FF4FAA
S1130F108F4F0C940F1710923B0310923A0384E600
S1130F2090E0909337038093360342E350E050936C
S1130F30090340930803909313038093120328EC4E
S1130F4030E030934F0320934E036AE070E07093D7
S1130F50310360933003109221031092200368E759
S1130F6070E070930D0360930C0350932903409336
S1130F7028039093390380933803309333032093E9
S1130F8032038DE290E090931F0380931E0346C2C8
S1130F9010923B0310923A0324E630E03093370377
S1130FA02093360382E390E090930903809308032F
S1130FB0309313032093120348EC50E050934F03F3
S1130FC040934E036AE070E0709331036093300302
S1130FD0109221031092200368E770E070930D03D0
S1130FE060930C039093290380932803309339036F
S1130FF020933803509333034093320390931F0399
S113100080931E030BC210923B0310923A0384E6B2
S113101090E0909337038093360342E350E050937B
S1131020090340930803909313038093120328EC5D
S113103030E030934F0320934E036AE070E07093E6
S1131040310360933003109221031092200368E768
S113105070E070930D0360930C0350932903409345
S113106028039093390380933803309333032093F8
S1131070320387E390E090931F0380931E03CEC155
S113108010923B0310923A038CE390E09093370361
S11310908093360382E890E09093090380930803D9
S11310A028EC30E0309313032093120384E690E09D
S11310B090934F0380934E0342E150E050933103E9
S11310C04093300310922103109220034EE150E02C
S11310D050930D0340930C0344EB50E050932903C9
S11310E04093280342ED50E050931F0340931E03A6
S11310F0309339032093380390933303809332035E
S11311008DC110923B0310923A0384E690E09093D1
S113111037038093360342E350E05093090340932E
S11311200803909313038093120328EC30E0309368
S11311304F0320934E036AE070E070933103609391
S11311403003109221031092200368E770E070933B
S11311500D0360930C035093290340932803909349
S1131160390380933803309333032093320381E4AB
S113117090E090931F0380931E0350C110923B0391
S113118010923A0384E690E09093370380933603F9
S113119042E350E0509309034093080390931303F0
S11311A08093120328EC30E030934F0320934E03D6
S11311B06AE070E07093310360933003109221036E
S11311C01092200368E770E070930D0360930C03A2
S11311D05093290340932803909339038093380351
S11311E0309333032093320386E490E090931F03FB
S11311F080931E0313C110923B0310923A0384E6BA
S113120090E0909337038093360342E350E0509389
S1131210090340930803909313038093120328EC6B
S113122030E030934F0320934E036AE070E07093F4
S1131230310360933003109221031092200368E776
S113124070E070930D0360930C0350932903409353
S11312502803909339038093380330933303209306
S113126032038BE490E090931F0380931E03D6C057
S113127010923B0310923A0386E990E0909337036F
S11312808093360384E690E09093090380930803E7
S1131290909313038093120328EC30E030934F03B0
S11312A020934E034AE050E05093310340933003BF
S11312B0109221031092200348E750E050930D034D
S11312C040930C0342E350E05093290340932803D6
S11312D0909339038093380330933303209332037C
S11312E080E590E090931F0380931E0397C086EFE0
S11312F09FEF90933B0380933A038CE390E09093A9
S113130037038093360382E390E090931D03809328
S11313101C0328E730E030932B0320932A032EE1AB
S113132030E030933F0320933E0344EB50E050936E
S113133005034093040344E650E050934F03409365
S11313404E0346E150E05093310340933003309311
S113135021032093200390930D0380930C038CE8C6
S113136090E0909329038093280382ED90E090937A
S11313701F0380931E038FEA90E0909327038093CA
S1131380260320910803309109032E523F4FC901CF
S113139099230CF401969595879590932F03809348
S11313A02E038CED90E0909339038093380384E608
S11313B090E0909333038093320330C010923B0348
S11313C010923A03109237031092360310920903D5
S11313D010920803109213031092120310924F03F9
S11313E010924E0310923103109230031092210395
S11313F01092200310920D0310920C0310922903F3
S11314001092280310923903109238031092330378
S11314101092320310921F0310921E0320911E0398
S113142030911F0330930703209306031092450362
S113143010924403309335032093340381E090E009
S1131440909323038093220341E6429FC001439F6C
S1131450900D1124E4E6F0E0BF010E94FC167093A5
S11314600F0360930E0383E090E090932D03809329
S11314702C0348E5429FC001439F900D1124BF01F6
S11314800E94FC1670934D0360934C0385E090E03A
S1131490909347038093460346E5429FC001439FD0
S11314A0900D1124BF010E94FC16709341036093B8
S11314B0400388E090E0909325038093240343E560
S11314C0429FC001439F900D1124BF010E94FC164E
S11314D070931503609314038AE090E090934303A0
S11314E0809342034EE4429FC001439F900D112418
S11314F0BF010E94FC1670930303609302038DE006
S113150090E090931B0380931A034BE4429FC00125
S1131510439F900D1124BF010E94FC1670934B034E
S113152060934A0381E190E09093490380934803D8
S113153008959091D902937C81E0933C09F080E076
S11315400895F7DF81110DC08091D902982F907F03
S1131550903F49F0982F9F7081E09F3029F080E000
S1131560089580E0089582E008950F931F93CF9328
S1131570DF93EC018B01A8D9DD2314F5D195C19536
S1131580D109FE01E05FFD4F2081209FC001219F12
S1131590900D112424E630E0B9010E94FC16FB01F1
S11315A0CE5BDD4F4881409FC001419F900D1124C7
S11315B0B9010E94FC16CB01BF010E94921425C000
S11315C0209729F4B801C8010E9492141EC0FE019C
S11315D0EE5BFD4F2081209FC001219F900D1124BF
S11315E024E630E0B9010E94FC16FB01C05FDD4F28
S11315F04881409FC001419F900D1124B9010E9470
S1131600FC16CB01BF010E949214DF91CF911F9170
S11316100F9108950F931F93CF93DF93EC018B01E8
S113162065D9DD234CF5882799278C1B9D0B6AE02F
S113163070E00E94FC169B01FB01E05FFD4F4081BE
S1131640409FC001419F900D1124E4E6F0E0BF01EA
S11316500E94FC16EB01D901AE5BBD4F2C91209F7B
S1131660C001219F900D1124BF010E94FC16CB01E3
S1131670BE010E9492142CC0209729F4B801C8011D
S11316800E94921425C0CE016AE070E00E94FC160C
S11316909B01FB01EE5BFD4F4081409FC001419FD8
S11316A0900D1124E4E6F0E0BF010E94FC16EB016A
S11316B0D901A05FBD4F2C91209FC001219F900DA7
S11316C01124BF010E94FC16CB01BE010E9492149A
S11316D0DF91CF911F910F9108958091D90290E0ED
S11316E0813F910508F027C2FC018827E558FF4F88
S11316F08F4F0C940F17609106037091070380912C
S113170044039091450331DF1092520310923C033D
S113171081E080933D03089580913C038D3F34F430
S113172060E070E082EE9FEF20CF08956091340373
S113173070913503809122039091230316DF109258
S1131740520381E080933C0380933D03089580918C
S11317503C038D3F34F460E070E082EE9FEF05CFF0
S1131760089560910E0370910F0380912C03909162
S11317702D03FBDE1092520382E080933C0381E050
S113178080933D03089580913C038D3F34F460E0E1
S113179070E082EE9FEFE9CE08958091530390911B
S11317A054030C9750F087E090E08ED86CEE7FEFF6
S11317B08CEE9FEF0E94921409C060914C037091CB
S11317C04D038091460390914703CFDE81E08093DF
S11317D0520383E080933C0310923D03089580916B
S11317E03C038D3F34F460E070E082EE9FEFBDCEA9
S11317F0089580915303909154030C9750F08FE017
S113180090E062D86CEE7FEF8CEE9FEF0E94921412
S113181009C0609140037091410380912403909129
S11318202503A3DE81E08093520384E080933C038C
S113183010923D03089580913C038D3F34F460E0A1
S113184070E082EE9FEF91CE0895809153039091C2
S113185054030C9750F08FE090E036D86CEE7FEF95
S11318608CEE9FEF0E94921409C060911403709152
S11318701503809142039091430377DE81E08093C6
S1131880520385E080933C0310923D0308958091B8
S11318903C038D3F34F460E070E082EE9FEF65CE50
S11318A00895609102037091030380911A0390914B
S11318B01B035BDE81E08093520386E080933C034C
S11318C010923D03089580913C038D3F34F460E011
S11318D070E082EE9FEF49CE089560914A037091C3
S11318E04B0380914803909149033FDE81E080934C
S11318F0520310923D0386E080933C030895809147
S11319003C038C3F34F460E070E082EE9FEF2DCE18
S1131910089585300CF417C160E070E08EE190E02A
S113192024CE089580913C03843034F060E070E06C
S11319308EE190E01ACE08956091340370913503DE
S1131940809122039091230391958195910962DE00
S1131950109252038FEF80933C0381E080933D0308
S1131960089580913C03843034F060E070E08EE1AF
S113197090E0FBCD089560910E0370910F03809168
S11319802C0390912D03919581959109EEDD109290
S113199052038EEF80933C0381E080933D030895CE
S11319A080913C03843034F060E070E08EE190E09C
S11319B0DCCD089580915303909154030C9750F01B
S11319C089EF9FEF0E9464046CEE7FEF8CEE9FEF33
S11319D0A9D70CC060914C0370914D0380914603CC
S11319E090914703919581959109BFDD81E08093A2
S11319F052038DEF80933C0310923D030895809130
S1131A003C03843034F060E070E08EE190E0ADCDD2
S1131A10089580915303909154030C9750F081EFF3
S1131A209FEF0E9464046CEE7FEF8CEE9FEF7AD7F9
S1131A300CC0609140037091410380912403909104
S1131A40250391958195910990DD81E0809352035E
S1131A508CEF80933C0310923D03089580913C03E6
S1131A60843034F060E070E08EE190E07ECD089543
S1131A7080915303909154030C9750F081EF9FEFA2
S1131A800E94640460E070E080E090E04BD70CC0FA
S1131A906091140370911503809142039091430364
S1131AA091958195910961DD81E0809352038BEFDB
S1131AB080933C0310923D03089580913C0384304D
S1131AC034F060E070E08EE190E04FCD08956091D5
S1131AD002037091030380911A0390911B03919563
S1131AE08195910942DD81E0809352038AEF8093CE
S1131AF03C0310923D03089580913C03843034F0FC
S1131B0060E070E08EE190E030CD089560914A038A
S1131B1070914B038091480390914903919581956D
S1131B20910923DD81E0809352038AEF80933C0383
S1131B3010923D03089581E080933D0360E070E0DE
S1131B4080E090E0EFC60895BC018091D90290E056
S1131B50813F910508F0EBC1FC018827E459FE4F51
S1131B608F4F0C940F178091440390914503FDDC33
S1131B701092520310923C0381E080933D03089538
S1131B8080913C038D3F34F460E070E082EE9FEF7F
S1131B90ECCC08958091220390912303E6DC10920B
S1131BA0520381E080933C0380933D030895809128
S1131BB03C038D3F34F460E070E082EE9FEFD5CCBF
S1131BC0089580912C0390912D03CFDC1092520341
S1131BD082E080933C0381E080933D0308958091EB
S1131BE03C038D3F34F460E070E082EE9FEFBDCCA7
S1131BF0089580915303909154030C9750F087E01B
S1131C0090E00E9464046CEE7FEF8CEE9FEF8AD626
S1131C1005C08091460390914703A7DC81E080933F
S1131C20520383E080933C0310923D030895809116
S1131C303C038D3F34F460E070E082EE9FEF95CC7E
S1131C40089580915303909154030C9750F08FE0C2
S1131C5090E00E9464046CEE7FEF8CEE9FEF62D6FE
S1131C6005C080912403909125037FDC81E080935B
S1131C70520384E080933C0310923D0308958091C5
S1131C803C038D3F34F460E070E082EE9FEF6DCC56
S1131C90089580915303909154030C9750F08FE072
S1131CA090E00E9464046CEE7FEF8CEE9FEF3AD6D6
S1131CB005C0809142039091430357DC81E08093F7
S1131CC0520385E080933C0310923D030895809174
S1131CD03C038D3F34F460E070E082EE9FEF45CC2E
S1131CE0089580911A0390911B033FDC81E0809357
S1131CF0520386E080933C0310923D030895809143
S1131D003C038D3F34F460E070E082EE9FEF2DCC15
S1131D100895809148039091490327DC81E08093E2
S1131D20520310923D0386E080933C030895809112
S1131D303C038C3F34F460E070E082EE9FEF15CCFE
S1131D40089585300CF4FBC060E070E08EE190E013
S1131D500CCC089580913C03843034F060E070E052
S1131D608EE190E002CC08958091220390912303A8
S1131D709195819591094EDC109252038FEF8093D7
S1131D803C0381E080933D03089580913C038430BB
S1131D9034F060E070E08EE190E0E7CB089580914C
S1131DA02C0390912D03919581959109DEDB10927E
S1131DB052038EEF80933C0381E080933D030895AA
S1131DC080913C03843034F060E070E08EE190E078
S1131DD0CCCB089580915303909154030C9750F009
S1131DE089EF9FEF0E9464046CEE7FEF8CEE9FEF0F
S1131DF099D508C0809146039091470391958195A8
S1131E009109B3DB81E0809352038DEF80933C030F
S1131E1010923D03089580913C03843034F060E0D7
S1131E2070E08EE190E0A1CB0895809153039091EE
S1131E3054030C9750F081EF9FEF0E9464046CEE02
S1131E407FEF8CEE9FEF6ED508C0809124039091B4
S1131E50250391958195910988DB81E08093520354
S1131E608CEF80933C0310923D03089580913C03D2
S1131E70843034F060E070E08EE190E076CB089539
S1131E8080915303909154030C9750F081EF9FEF8E
S1131E900E94640460E070E080E090E043D508C0F4
S1131EA080914203909143039195819591095DDB63
S1131EB081E0809352038BEF80933C0310923D03A7
S1131EC0089580913C03843034F060E070E08EE14A
S1131ED090E04BCB089580911A0390911B03919548
S1131EE08195910942DB81E0809352038AEF8093CC
S1131EF03C0310923D03089580913C03843034F0F8
S1131F0060E070E08EE190E030CB0895809148036A
S1131F109091490391958195910927DB81E0809304
S1131F2052038AEF80933C0310923D03089581E0AD
S1131F3080933D0360E070E080E090E0F3C4089596
S1131F400F931F93CF93DF938B0110925103109241
S1131F505003EC01892B49F0C801F6DD8091500350
S1131F60909151038C179D07B8F3DF91CF911F9186
S1131F700F9108956F927F928F929F92AF92BF922A
S1131F80CF92DF92EF92FF920F931F93CF93DF9341
S1131F906C0110925C0310925B0310925103109237
S1131FA0500341E060E081E00E943907C3E1D0E0E2
S1131FB00F2EFFE16F2EF02D712CEE24E394F12C03
S1131FC00F2EF8E18F2EF02D912C02E010E00F2E51
S1131FD0F7E1AF2EF02DB12CFE017397EC31F10532
S1131FE008F049C18827E35AFD4F8F4F18C7609105
S1131FF03A0370913B038091360390913703A0DF3D
S1132000C601A2DDCA2DDB2DE7CF80915B03909141
S11320105C038938934108F031C193DA8823E1F1F4
S11320208130F1F08230C1F6109317030093160348
S113203082EE9FEF0E94640460913A0370913B0327
S113204080913603909137037BDF84E690E00E9411
S11320509A0310925C0310925B03C82DD92DBCCF58
S1132060F0921703E09216038EE190E00E9464045C
S113207060913A0370913B0380913603909137034A
S11320805FDF84E690E00E949A0310925C03109252
S11320905B03C82DD92DA0CFC60156DD9DCF8091FD
S11320A016039091170381309105D9F0029709F036
S11320B093CF82EE9FEF0E946404609104037091B9
S11320C0050380913E0390913F032CD48091D90263
S11320D0811102C0C62DD72D10925C0310925B03B0
S11320E07BCF8EE190E00E94640460913E03709186
S11320F03F03809104039091050314D48091D90285
S1132100811102C0C9E2D0E010925C0310925B031B
S113211063CF40E060E081E00E94390782EE9FEFE8
S11321200E946404609104037091050380913E034E
S113213090913F03F7D38091D90284FD0DC0609143
S113214004037091050380913E0390913F03EAD309
S11321508091D90284FFF3CF10925C0310925B0349
S1132160CEE2D0E039CF40E060E081E00E94390760
S11321708EE190E00E94640460913E0370913F03FD
S11321808091040390910503CDD38091D90283FDFE
S11321900DC060913E0370913F03809104039091C0
S11321A00503C0D38091D90283FFF3CF10925C035F
S11321B010925B03CDE2D0E00FCF41E060E081E01C
S11321C00E9439078EE190E00E94640460E070E0B0
S11321D0C601A8D38091D9028C7309F4FDCE109264
S11321E05C0310925B031092510310925003CEE2F1
S11321F0D0E0F2CE41E061E081E00E943907109224
S11322005103109250038CE291E00E949A03809152
S1132210500390915103883C910560F480912E0302
S113222090912F0391DC8091500390915103883C4D
S11322309105A0F3109251031092500380914E0324
S113224090914F03892B81F0809112039091130395
S11322507BDC209150033091510380914E03909187
S11322604F032817390780F310925803109257032D
S11322708BE090E005C08BE090E002C084E690E043
S1132280DF91CF911F910F91FF90EF90DF90CF904E
S1132290BF90AF909F908F907F906F9008950F9311
S11322A01F93CF93DF938C0184E690E00E949A03FE
S11322B010925C0310925B03C2E3D0E002C0C9E356
S11322C0D0E037D9882339F010925C0310925B0375
S11322D085E190E0B6C0C833D10509F465C03CF48B
S11322E0C233D10521F1C333D105C9F1A8C0CA3322
S11322F0D10529F00CF467C0EB9751F0A0C0809190
S1132300500390915103883C910508F475C07DC039
S11323102091320330913303809150039091510303
S11323208217930708F478C08BE090E08AC080910C
S11323305B0390915C03449760F460912003709177
S1132340210380910C0390910D03FADDC3E3D0E0E7
S1132350B8CF8091260390912703F6DBB2CF80910A
S1132360D902811110C08091300390913103B801DA
S1132370919581959109F9D810925C0310925B03B1
S1132380C8E3D0E09ECFC801DFDB80915B0390916E
S11323905C03893B9B4008F494CF10925C03109239
S11323A05B038BE090E04DC08091D902807609F404
S11323B088CF10925C0310925B03B80180913003C4
S11323C090913103D2D8109251031092500380910E
S11323D0D9028F7009F473CF10925C0310925B03DF
S11323E0609120037091210380910C0390910D035F
S11323F0A7DDCAE3D0E065CFC801A6DB8091500316
S113240090915103883C9105B8F3109251031092B6
S11324105003CBE3D0E055CF80913803909139033A
S113242093DB2091500330915103809132039091BA
S113243033032817390780F38BE090E002C08BE068
S113244090E0DF91CF911F910F9108950F931F9307
S1132450CF93DF938C0184E690E00E949A03CCE34F
S1132460D0E067D8811196C0C234D10509F449C0BF
S11324703CF4CC33D10529F1CD33D10571F18DC0B4
S1132480C434D10531F00CF44DC0C534D10551F03C
S113249084C08091500390915103883C910508F4C5
S11324A056C05EC0209132033091330380915003B3
S11324B0909151038217930708F459C08BE090E080
S11324C06EC0609120037091210380910C03909160
S11324D00D0336DDCDE3D0E0C4CF8091D902811164
S11324E00DC0B80180913003909131033ED884E649
S11324F090E00E949A03C2E4D0E0B3CFC80124DB89
S1132500B0CF8091D902867009F4ABCF80913003AB
S113251090913103B80191958195910926D8C3E42E
S1132520D0E09FCF10925103109250038091D902B2
S1132530807F09F496CF60912003709121038091EC
S11325400C0390910D03FCDCC4E4D0E08ACFC801F5
S1132550FBDA8091500390915103883C9105B8F3C4
S11325601092510310925003C5E4D0E07ACF8091C9
S1132570380390913903E8DA2091500330915103E4
S113258080913203909133032817390780F38BE04D
S113259090E005C085E190E002C08BE090E0DF911F
S11325A0CF911F910F9108950E946107C0E00DE043
S11325B01BE0DCE0CB3009F459C038F4C13041F100
S11325C080F0C23009F0C8C035C0CD3009F486C0EF
S11325D008F46EC0C53109F497C0C43609F0BCC014
S11325E0A4C00E940F05813071F484E690E00E943B
S11325F09A032FEF89E698E1215080409040E1F75B
S113260000C0000005C083E00E94FC04882349F355
S11326100E940F05882329F083E00E94FC0488238C
S1132620B9F310925C0310925B0310925A03109258
S1132630590306C080915B0390915C03892B51F48C
S113264080E090E00E94640460E070E080E090E04C
S113265069D1F0CF84E690E00E949A0310925C0363
S113266010925B0310925A03109259030E94990A24
S1132670882329F010925C0310925B0345C00E94EA
S1132680A10A813041F0823061F410925C0310920F
S11326905B03CD2F07C010925C0310925B03C02F25
S11326A001C0C12F80911E0390911F0316D882CFC1
S11326B00E94990A882329F010925C0310925B030C
S11326C023C08091280390912903E9DDC82F10923B
S11326D05C0310925B0310923D036CCF0E94990A35
S11326E0882329F010925C0310925B030DC0809143
S11326F0280390912903AADEC82F10925C0310923C
S11327005B0310923D0356CF84E690E00E949A0347
S113271080912A0390912B032DDCC82F10925C0327
S113272010925B0310923D0345CF80915B0390911F
S11327305C03843F914030F460E070E080E090E01E
S1132740F1D0F3CF60E070E080E090E0EBD080E087
S113275090E00E946404E9CF10925C0310925B0342
S113276085CF1F920F920FB60F9211240BB60F92C2
S11327702F933F934F935F936F937F938F939F9385
S1132780AF93BF93EF93FF9386E086BDE4D20E949C
S113279087030E94D6040E94EF028091D9020E940E
S11327A03607FF91EF91BF91AF919F918F917F91E8
S11327B06F915F914F913F912F910F900BBE0F90AE
S11327C00FBE0F901F90189580E880BF0E944404AC
S11327D076D0A8D20E949B020E947B030E94280705
S11327E00E94B3040E94FB030E948A0480E090E0EC
S11327F00E9464040E9475030C9459050895CF93B4
S1132800DF930E94BD02EC0160E083E00E943C057E
S113281084E68C9F90018D9F300D11243695279569
S1132820A1EABFEB04D3880F892F881F990B9195D8
S11328300E94CF050DC084E190E00E949A032FEF1F
S113284081EE94E0215080409040E1F700C0000008
S11328500E94BD028C32914070F3DF91CF910895B4
S1132860B3DF789460E070E080E090E05BD081E0DA
S11328708093080284E190E00E949A0360E083E080
S11328800E943C0584E792E00E94BF0561E082E07B
S11328900E943C058CE792E00E94BF052FEF8DE378
S11328A099E4215080409040E1F700C000000E946C
S11328B05005A5DF72D078DE81E090E008958DB1F7
S11328C0846C8DB98DB188638DB984B1876084B906
S11328D085B1876085B989EA8093900082E080930E
S11328E0910010929500109294001092970010920B
S11328F09600109299001092980010929B001092EA
S11329009A0010929D0010929C000895813011F459
S1132910729A089572980895813011F4769A089500
S1132920769808950F931F93CF93DF938C01EB0157
S113293099231CF081E0EADF05C011950195110986
S113294080E0E4DFDD231CF081E0E6DF05C0D19503
S1132950C195D10980E0E0DF0F3F110519F014F0B3
S11329600FEF10E0CF3FD10519F014F0CFEFD0E016
S1132970112314F400E010E01093990000939800E0
S1132980DD2314F4C0E0D0E0D0939B00C0939A0000
S1132990DF91CF911F910F910895CF93DF93CCEDE9
S11329A0D2E0B8C10E940A05823009F491C028F42B
S11329B0882361F08130E9F179C1843009F4F9C0E8
S11329C008F4E7C0853009F445C170C140E060E017
S11329D081E00E94390780E00E94FC04882331F0E2
S11329E00E944F0384E190E00E949A0381E00E94D8
S11329F0FC04882331F00E94290384E690E00E94BD
S1132A009A0382E00E94FC04882331F00E940A03A6
S1132A108CE291E00E949A0383E00E94FC048823E4
S1132A2009F478C10E940A038CE291E00E949A039F
S1132A3071C140E061E080E00E94390781E00E94BA
S1132A40FC04882361F060E070E086E09FEF6ADFB9
S1132A508FE39CE90197F1F700C000005BC180E0BF
S1132A600E94FC04882361F060E070E08AEF90E04B
S1132A7059DF8FE39CE90197F1F700C000004AC1D8
S1132A8083E00E94FC04882361F066E07FEF80E02D
S1132A9090E048DF8FE39CE90197F1F700C0000064
S1132AA039C182E00E94FC04882361F06AEF70E07F
S1132AB080E090E037DF8FE39CE90197F1F700C0F5
S1132AC0000028C160E070E080E090E02BDF22C1CC
S1132AD041E060E080E00E94390782E00E94FC044B
S1132AE08823B9F08091060290910702029790938F
S1132AF007028093060280E090E00E9464049FEF46
S1132B0020E782E0915020408040E1F700C00000BF
S1132B1001C181E00E94FC048823B9F0809106027F
S1132B20909107020296909307028093060280E038
S1132B3090E00E9464049FEF20E782E091502040DF
S1132B408040E1F700C00000E5C080E00E94FC0482
S1132B50811106C083E00E94FC04882309F4DAC0D2
S1132B600E9481049FEF23ED80E391502040804038
S1132B70E1F700C0000088EC90E00E949A039FEF08
S1132B8023EC89E0915020408040E1F700C0000030
S1132B90C1C040E061E081E00E94390760E080E06C
S1132BA00E943C058091EF029091F0020E94CF05B3
S1132BB0B1C041E061E080E00E9439070E94500505
S1132BC060E080E00E943C058E859F850E94CF05D1
S1132BD060E084E00E943C058C859D850E94CF05C1
S1132BE060E088E00E943C058A859B850E94CF05B1
S1132BF060E08CE00E943C05888599850E94CF05A1
S1132C0061E080E00E943C058E819F810E94CF0597
S1132C1061E084E00E943C058C819D810E94CF0587
S1132C2061E088E00E943C058A819B810E94CF0577
S1132C3061E08CE00E943C05888199810E94CF0567
S1132C409FEF21EE84E0915020408040E1F700C0E6
S1132C50000060C041E060E081E00E94390782E04A
S1132C600E94FC04882371F083E290E00E946404D3
S1132C709FEF20E782E0915020408040E1F700C0C0
S1132C80000048C081E00E94FC04882309F442C08B
S1132C908DED9FEF0E9464049FE722E382E0915050
S1132CA020408040E1F700C0000034C040E060E014
S1132CB080E00E94390780E00E94FC04882339F0F8
S1132CC01092080288EC90E00E949A0323C083E0EB
S1132CD00E94FC04882339F01092080288EC90E0EA
S1132CE00E949A0317C081E00E94FC04882339F0F3
S1132CF01092080288EC90E00E949A030BC082E0D4
S1132D000E94FC04882331F01092080288EC90E0C1
S1132D100E949A0380910802813009F443CEDF9126
S1132D20CF91089510925A031092590310925803A8
S1132D3010925703109251031092500310925C03A7
S1132D4010925B0314BC83E085BD86E086BD81E000
S1132D5080936E00089580915B0390915C030196CB
S1132D6090935C0380935B03809150039091510393
S1132D70019690935103809350038091590390914D
S1132D805A03019690935A038093590380915203F6
S1132D9081110AC080915703909158030196909332
S1132DA058038093570315C0813099F41092580347
S1132DB010925703809153039091540301978A30E2
S1132DC09105A8F48AE090E0909354038093530310
S1132DD0089580915703909158038D32914058F093
S1132DE081E590E090935403809353030895909366
S1132DF0540380935303089597FB072E16F400940D
S1132E0006D077FD08D022D007FC05D03EF490957B
S1132E1081959F4F0895709561957F4F0895EE0FAA
S1132E20FF1F881F8BBF0790F691E02D1994A29F76
S1132E30B001B39FC001A39F700D811D1124911D8A
S1132E40B29F700D811D1124911D0895AA1BBB1BF7
S1132E5051E107C0AA1FBB1FA617B70710F0A61B96
S1132E60B70B881F991F5A95A9F780959095BC01B7
S1132E70CD0108950F931F93CF93DF938230910573
S1132E8010F482E090E0E0915F03F091600320E0B1
S1132E9030E0A0E0B0E0309719F140815181028127
S1132EA0138148175907C8F08417950769F41097D8
S1132EB031F012960C93129713961C9327C000932B
S1132EC05F031093600322C02115310519F04217E6
S1132ED0530718F49A01BD01EF01DF01F801DBCFBC
S1132EE021153105F9F0281B390B2430310580F404
S1132EF08A819B816115710521F0FB019383828393
S1132F0004C09093600380935F03FE01329644C033
S1132F10FE01E20FF31F819391932250310939830B
S1132F2028833AC020915D0330915E03232B41F442
S1132F30209102023091030230935E0320935D03DB
S1132F4020910002309101022115310541F42DB781
S1132F503EB74091040250910502241B350BE091C9
S1132F605D03F0915E03E217F307A0F42E1B3F0B01
S1132F702817390778F0AC014E5F5F4F24173507E7
S1132F8048F04E0F5F1F50935E0340935D0381939F
S1132F90919302C0E0E0F0E0CF01DF91CF911F9167
S1132FA00F910895CF93DF93009709F481C0FC013A
S1132FB0329713821282A0915F03B091600310973D
S1132FC081F420813181820F931F20915D03309120
S1132FD05E032817390751F5F0935E03E0935D0310
S1132FE067C0ED0120E030E0CE17DF0740F44A81EE
S1132FF05B819E0141155105F1F0EA01F5CFD383C0
S1133000C28340815181840F951FC817D90759F491
S113301088819981840F951F0296918380838A8188
S11330209B81938382832115310529F4F0936003F6
S1133030E0935F033DC0E901FB83EA834991599121
S1133040C40FD51FEC17FD0761F480819181840FB3
S1133050951F0296E90199838883828193819B83DA
S11330608A83E0E0F0E012968D919C91139700978B
S113307019F0FD01DC01F7CF8D919C9111979D0111
S11330802E5F3F4F820F931F20915D0330915E03AB
S11330902817390769F4309729F4109260031092C5
S11330A05F0302C013821282B0935E03A0935D0398
S10D30B0DF91CF910895F894FFCF4B
S11330BA000061032000DC050120200031003000FB
S11330CA6465666768696A6B6C6D6E6F6F7071723E
S11330DA737475767778797A7B7D7E7F8081828432
S11330EA858687898A8B8D8E9091939596989A9CDA
S11330FA9EA064636261605F5E5D5C5B5A59595865
S113310A57565554535251504F4E4D4B4A494847BE
S113311A46444342413F3E3D3B3A383735333230E9
S113312A2E2C2A28454955204D4352004549552EEF
S10B313A4544552E564E0000D9
S9030000FC
